:020000040000FA
:1000000098030010690100007101000073010000F5
:100010007501000077010000790100000000000078
:100020000000000000000000000000007B01000054
:100030007D010000000000007F0100008101000040
:1000400083010000830100008301000083010000A0
:100050008301000083010000830100008301000090
:100060008301000083010000830100008301000080
:100070008301000083010000830100008301000070
:100080008301000083010000830100008301000060
:100090008301000083010000FB09000083010000D0
:1000A0008301000083010000830100008301000040
:1000B0008301000083010000830100008301000030
:1000C00083010000830100008301000000F002F8BA
:1000D00000F03AF80AA090E8000C82448344AAF1A8
:1000E0000107DA4501D100F02FF8AFF2090EBAE8A6
:1000F0000F0013F0010F18BFFB1A43F0010318475C
:10010000E411000004120000103A24BF78C878C13E
:10011000FAD8520724BF30C830C144BF04680C600D
:10012000704700000023002400250026103A28BF55
:1001300078C1FBD8520728BF30C148BF0B60704759
:100140001FB51FBD10B510BD00F0A6F81146FFF792
:10015000F7FF00F097FB00F0C4F803B4FFF7F2FFDD
:1001600003BC00F069FD00000948804709480047CA
:10017000FEE7FEE7FEE7FEE7FEE7FEE7FEE7FEE757
:10018000FEE7FEE704480549034A054B70470000B7
:10019000A9040000CD000000980100109803001091
:1001A0009801001053EA020C00F069802DE9F04B31
:1001B0004FF00006002B1FBFB3FA83F503FA05F4D6
:1001C00024FA05F65E4012BF1643B2FA82F502FA2F
:1001D00005F4C5F120051EBF22FA05FC44EA0C0413
:1001E000203556EA044C4FEA144418BF641C4FF003
:1001F00000084FF00009904271EB030C39D300293D
:1002000019BFB1FA81F701FA07F6B0FA80F700FAE0
:1002100007F6C7F120071EBF20FA07FC46EA0C06C6
:100220002037B6FBF4FCA7EB0507103F07F01F0BC8
:10023000CBF120060CFA0BFB2CFA06F644BFB346B2
:100240000026202FA4BF5E464FF0000B5BEA060C91
:1002500008BF4FF0010B19EB0B09ABFB027C48EB1D
:100260000608C01B06FB02CC0BFB03CC71EB0C0198
:10027000C1E70B46024641464846BDE8F08B13B540
:100280004FF000004FF00001AFF30080BDE81C40CC
:100290007047704770477047754600F029F8AE46C2
:1002A00005006946534620F00700854618B020B582
:1002B000FFF768FFBDE820404FF000064FF0000751
:1002C0004FF000084FF0000B21F00701AC46ACE8FE
:1002D000C009ACE8C009ACE8C009ACE8C0098D466B
:1002E00070470446AFF300802046FFF736FF00005A
:1002F000004870473801001070470000FFFFFFFF03
:100300002DE9F047B1480068C0F3016003287CD1B3
:10031000AF48006810F0030006D0012833D002284F
:100320005FD003282ED100E000BFA8480068C0F3CA
:10033000074000F101044FF00201A648D0F8880000
:10034000C0F30E0000F10100A1FB0001A24B4FF031
:10035000000CA0FB037901FB039100FB0C1122466A
:1003600063463846FFF71EFF05469C480068C0B24A
:1003700000F1010422464FF000032846FFF712FF68
:10038000974908605DE091480068C0F3074000F1BC
:1003900001044FF002018F48D0F88800C0F30E002E
:1003A00000F10100A1FB00108E4A4FF0000CA1FBF0
:1003B000027900FB029001FB0C012246634638469D
:1003C000FFF7F0FE054685480068C0B200F1010461
:1003D00022464FF000032846FFF7E4FE80490860FC
:1003E0002FE07A480068C0F3074000F101044FF0A5
:1003F00002017848D0F88800C0F30E0000F1010037
:10040000A1FB00124FF4004000E01BE04FF000039E
:10041000A1FB007902FB009001FB03012246384654
:10042000FFF7C0FE05466D480068C0B200F1010448
:1004300022464FF000032846FFF7B4FE68490860E3
:1004400000BF2FE06248006810F0030006D00128CA
:1004500010D0022819D0032823D100E000BF5F4844
:100460000068C0B200F101005B49B1FBF0F05C49EB
:10047000086016E059480068C0B200F1010059490F
:10048000B1FBF0F0564908600BE054480068C0B278
:1004900000F101004FF40041B1FBF0F05049086059
:1004A00000BF00BFBDE8F08720204F4908604948E1
:1004B000D0F8A00110F0200F05D000BF4A48006816
:1004C00010F0400FFAD00320444908604FF00000BC
:1004D0004049C1F8A801454908604FF001003C4976
:1004E00008604348434908604FF0AA004249086049
:1004F0004FF0550008604FF00100404908604FF090
:10050000AA003D4908604FF055003249C1F88C00FF
:1005100000BF2E48006810F0806FFAD003203749E2
:1005200008604FF0AA002B49C1F88C004FF055002D
:100530003149086000BF2548006800F04070B0F104
:10054000407FF8D123202E4908604FF0AA002149AE
:10055000C1F8AC004FF055002A4908604FF0010087
:10056000294908604FF0AA00264908604FF055005D
:100570001849C1F8AC0000BF2448006810F4806F2F
:10058000FAD00320204908604FF0AA001149C1F8B1
:10059000AC004FF055001B49086000BF1B480068C5
:1005A00000F44070B0F5407FF8D11948194908604F
:1005B0004FF000000749C1F8C8010846006820F460
:1005C000704040F4804008607047000088C00F40D1
:1005D0000CC10F4000C00F4000093D0004C10F4096
:1005E00000000010001BB700A0C10F40ACC10F40BD
:1005F0006300050084C00F408CC00F4080C00F40D6
:10060000A4C00F40ACC00F40A0C00F40A8C00F4016
:10061000DE872804C4C00F40002100E0491C81424D
:10062000FCD370474FF48040FE4908600020FE492B
:1006300008601DE0FB4800684000FA490860084671
:100640000068C043F94948610020F949086004E0A6
:10065000F7480068401CF6490860F54800684EF607
:1006600060218842F4D3F0480068401CEE490860DD
:10067000ED4800680328DDD9704700B56FF4070026
:10068000EA4908610020EB49086006E0FFF7CAFF6D
:10069000E8480068401CE7490860E64800683228DE
:1006A000F4D30020E449086004E0E3480068401CFB
:1006B000E1490860E04800684DF2D8618842F4D30F
:1006C0000020DA49086100BD0020DC49086028E00C
:1006D0004FF48000D54988610020D949086004E0C2
:1006E000D7480068401CD6490860D5480068D549FD
:1006F0008842F5DB4FF48000CC49C8610020D04926
:10070000086004E0CE480068401CCD490860CC4831
:100710000068CD498842F5DBC8480068401CC749DD
:100720000860C64800680A28D2DB704700B5002080
:10073000BE494861C54800684861C548007810B99D
:100740004815C86103E04FF48070B84988614FF4E0
:100750000070B64988611920FFF75EFF4FF4007002
:10076000B249C861BB48FFF757FF00BD00B54FF461
:100770007C70AE4908600020B5490870B649086031
:1007800035E0B648B449096850F82100B44908601A
:10079000AF480078012801D100200AE0B048006885
:1007A000302803D0AE480068202801D1012000E0A5
:1007B0000020AC490870AA48007800F0F000A34976
:1007C0000860FFF7B3FFA748007858B9A44800783D
:1007D00000F00F009D4908600846006800010860AD
:1007E000FFF7A4FF9C480068401C9B4908609A489A
:1007F00000680928C5D300BD0FB59B4B0FCB8DE812
:100800000F000020944908600120914908701EE003
:10081000914909681DF8010091490860084600786F
:1008200000F0F00089490860FFF780FF8C480078ED
:1008300000F00F0085490860084600680001086064
:10084000FFF774FF84480068401C834908608249B0
:1008500009681DF801000028DAD17D4908700C20D4
:100860007A4908600846006800010860FFF75EFFEB
:100870000020764908600846006800010860FFF71C
:1008800055FF0FBDFFF710FEFFF73AFDFFF76EFFB4
:10089000FFF7B2FF7548006800207449086048609F
:1008A0000846406840F4803048600846C06820F43C
:1008B0004010C8600846C06840F48010C860084610
:1008C000006820F0404008600846406820F03F0083
:1008D00048605648006840F4FF0054490860644886
:1008E000006840F482506349C1F8C400624863491B
:1008F00008604FF000006249C8604FF48050C8643F
:100900004FF00300486147F2305088614FF4807027
:1009100008644FF0FF0008654FF0020048604FF098
:10092000090048605748006858B9162001218140E5
:1009300042094FF0E02303EB8202C2F8001100BF2E
:1009400000BF02204D49C86000BFFEE700B501208E
:100950003F49087030203D490860FFF7E7FE4A48EC
:10096000C068000139490860FFF7E0FE30203749D0
:100970000860FFF7DBFE44488068000133490860E7
:10098000FFF7D4FE202031490860FFF7CFFEE020BA
:100990002E490860FFF7CAFE30202C490860FFF797
:1009A000C5FE39484068000128490860FFF7BEFECF
:1009B000D02026490860FFF7B9FEF02023490860DF
:1009C000FFF7B4FE402021490860FFF7AFFE30205A
:1009D0001E490860FFF7AAFE00201D490870C020CC
:1009E0001A490860FFF7A2FE002018490860FFF7C7
:1009F0009DFE2648FFF710FE00BD2DE9F041FF20C7
:100A00001F4908601D48006B00F002002049086083
:100A10000846006818B1194840691E4908601D4819
:100A2000008839E010010010D000001000C009203B
:100A300018010010C8000010CC00001008010010C0
:100A40000C010010C0570100801A0600E8000010D9
:100A50000C00001040420F00FC00001010000010BD
:100A6000E40000100D000010D412000000C002408D
:100A7000C4C00F4000C00F400200210000400340EE
:100A800000800140040000101C010010C0C62D00B1
:100A9000EC000010F000001080B25C4908600846CD
:100AA0000068000908600846006800F0CDFA80463A
:100AB00000F076FA06460022554B00F03DF9044658
:100AC00000F0C0F8534908600846006800F0A0FA3A
:100AD0000A2190FBF1F05049C8604E48006800F0D0
:100AE00097FA0A2190FBF1F201FB12004A49886053
:100AF0004A494848006800F0EFFA044600F088FAD6
:100B00000A2190FBF1F201FB120043494860FFF714
:100B10001DFF4048006800F043FA04464FF066327B
:100B20003F4B00F007FA07D2FFF7CEFD11204FF040
:100B30004021C863FFF7A1FD3A4801683A480068C0
:100B400000F096FB0BD8374841683748006800F042
:100B50008FFA04D235480068354908604AE03148C8
:100B600041683148006800F083FB0BD82D4881684C
:100B70002D48006800F07CFA04D22C4840682C49CB
:100B8000086037E0274881682748006800F070FB5C
:100B90000BD82448C1682448006800F069FA04D2E0
:100BA000224880682249086024E01E48C1681E4827
:100BB000006800F05DFB0BD81A4801691A4800680C
:100BC00000F056FA04D21948C0681949086011E0CB
:100BD000144801691448006800F04AFB0AD811481B
:100BE00041691148006800F043FA03D20F480069D8
:100BF0000F4908600E4800680E4908640846006DF9
:100C000040F010000865BDE8F0810000F000001021
:100C10000000893FD80000101C0100100000204196
:100C20006666354034000010E00000104C000010F3
:100C3000000100100080014001491820ABBEFEE712
:100C40002600020021F00042A2F16052B2F5801F9E
:100C500001F0004328BFD2F17F6C0BD95FEA001C82
:100C600043EAC20242EB507018BF704728BF20F021
:100C700001007047B2F5801FBCBF184670474FEAAD
:100C8000410C1CF5001F02D2084600F0ECBA70B50A
:100C900000F0FCF800000089FFF7F6BF4FF00040BD
:100CA000A0F580007047491058BFC1F140415B106A
:100CB00058BFC3F140438B42EFF300807047000000
:100CC00051EA030C17D41CF5801F58BFBCF5801FD8
:100CD00000F10680994218BF704708BF90427047E4
:100CE00007D711F5801F58BF13F5801F19D49942FB
:100CF0007047894270471CF5801F08D5BCF5801FDE
:100D0000F7D58B4218BF704708BF824270474FF437
:100D1000001C1CEB410F38BF1CEB430F01D28B4270
:100D2000704770B500F0B2F8922449004FF00051BE
:100D30004FF08053FFF7B7BFDFF848C170B51CEA2A
:100D4000111E1EBF1CEA13159EEA0C0F95EA0C0F2C
:100D500000F06F8081EA030423EA4C134EEAD47E4C
:100D600021EA4C1141F4801143F48013AE44A1FBFD
:100D7000024CA0FB0365AEF17F7E361955EB0C05E6
:100D8000A1FB034C4CF10003A0FB021C16EB0C066C
:100D9000654153F10003094218BF46F0010613F400
:100DA000007F0BD14FEA03314FEA0530340341EAAB
:100DB000155140EA16506FF003020AE04FEAC321D2
:100DC0004FEAC520F40241EA555140EA56506FF00F
:100DD000020202EB2E4201EB025585EACE710AD0E7
:100DE0005FEA440C18BF24F0004450F1000041F1C8
:100DF000000120EAD47040F2FE7C624500D270BD52
:100E0000A84214BF4FF080444FF04044002E08BF6A
:100E10000024BEF1806FA8BFA1F1C041BDE87040C1
:100E200080F282804FF0000001F1C04101F00041EA
:100E300070479EEA0C0F0CEA131518BF95EA0C0FC9
:100E400006D04FF0000081EA030E0EF0004170BDA5
:100E500000F01CF88900013E00F007B800F009B866
:100E60004FEA430C5FEA5C5C08D081EA030100F0C2
:100E70005BB84FEA410C5FEA5C5CF6D14FF00000D2
:100E8000014970470000FF070000F87F0EF1020ED5
:100E90002EF0030E5EF8046B364205D4012A43EBB4
:100EA000030515F5001F12D8012841EB010C1CF5B4
:100EB000001F0CD80ED14FEAD17C15F5001F0CEBAA
:100EC0004C0C0CF1020C08BF4CEBD37C04E04FF04F
:100ED000080C01E04FEAD37C0CEB4C0526FA05F632
:100EE00006F00706B6F1040C06D20EEB860CBDE840
:100EF00070404CF0010C6047DFE80CF0090B020277
:100F00004FF000414FF00000A1F5002170BD1946DF
:100F10001046012851EB010418BFD4F5001484BF1A
:100F2000002001F0004170BD0808A0F500114FEA53
:100F30003101704753EA010C17D41CF5801F58BFCC
:100F4000BCF5801F00F106808B4218BF704708BFB8
:100F50008242704707D713F5801F58BF11F5801FD5
:100F600019D48B4270479B4270471CF5801F08D5EF
:100F7000BCF5801FF7D5994218BF704708BF904253
:100F800070474FF4001C1CEB430F38BF1CEB410FA4
:100F900001D2994270470FB40CBC03BCFFF7C1BE2D
:100FA00043004FEAD30C4FEA3C0C43401FBF4007BD
:100FB0000CF1605113F0FE4F70471CF0006F03D12D
:100FC00000200CF0004170470CF0004343EA5070E1
:100FD00010B540EACC0000F000F900BF000000921C
:100FE0004FEA0001FFF7A0BF4FF000414FF00000B3
:100FF000A1F500217047401058BFC0F14040491092
:1010000058BFC1F140418142EFF3008070470000BA
:1010100041000B0ED3F19E0208D950F400034FEAB1
:10102000032323FA02F048BF4042704710B500F096
:10103000D4F800BF49922480002070476FF000422E
:1010400082EA200070470000B0FA80F310FA03F241
:10105000C3F19D030AD0D90501EB1220530638BF16
:10106000704700F1010008BF20F001007047000048
:1010700050EA010C00F113801CF5000F58BFBCF5BD
:10108000000F01D48842704707D710F5000F58BFF2
:1010900011F5000F15D488427047894270471CF53E
:1010A000000F04D5BCF5000FF7D5814270474FF013
:1010B000807C1CEB400F38BF1CEB410F01D28142FA
:1010C000704710B500F089F8922449004FF00050A5
:1010D0004FF08051FFF78FBF4FF47F0C1CEAD01206
:1010E0001EBF1CEAD11392EA0C0F93EA0C0F00F01A
:1010F000478090EA010F48BF42F480724FF0004CE5
:101100004CEA00204CEA012102EB0302A0FB011390
:10111000A2F50002002918BF43F001035B0028BFBD
:101120004FEA330342EB22425FEA132C4CEBC250EE
:101130002EBFBCEB436FB2F57C0F70474FEA036CD8
:10114000BCF1004F08BF20F00100B2F57C0F38BFA2
:1011500070470BD582F0FF0212F5803FC8BF704781
:1011600000F1C040D8BF00F00040704700F5000C0F
:101170005FEA4C0C48BF7047B0F1C04000F073B854
:1011800090EA010F0CEAD11348BF42F48072624525
:1011900038BF634504D280EA010000F00040704788
:1011A00010B500F01AF800BF8900013E00F007B842
:1011B00000F009B85FEA410C5FEA1C6C08D080EAD5
:1011C000010000F050B85FEA400C5FEA1C6CF6D1F9
:1011D0004FF00040A0F5800070470EF1020E2EF097
:1011E000030E5EF8044B244204D44FEA4102B2F1EC
:1011F0007F4F11D84FEA4003B3F17F4F0CD80ED187
:101200004FEAD07CB2F17F4F0CEB4C0C0CF1020C8E
:1012100008BF4CEBD17C04E04FF0080C01E04FEA32
:10122000D17C0CEB4C0324FA03F404F00704B4F172
:10123000040C06D20EEB840CBDE810404CF0010CFF
:101240006047DFE80CF0070802024FF00040A0F50D
:10125000800010BD0846420018BFD2F1807288BFDE
:1012600000F0004010BDFF2141EAD050C00570479A
:1012700051EA000C00F113801CF5000F58BFBCF5BB
:10128000000F01D48142704707D711F5000F58BFF6
:1012900010F5000F15D481427047894270471CF544
:1012A000000F04D5BCF5000FF7D5884270474FF00A
:1012B000807C1CEB410F38BF1CEB400F01D28842F1
:1012C000704780EA010081EA000180EA0100FFF72F
:1012D000F8BE000054656D706572617475726520AA
:1012E0006973000004130000000000101C010000DE
:1012F00008010000201400001C0100107C02000006
:101300002401000000E1F5050000000000000000DD
:10131000000000003000000030000000300000003D
:1013200020000000280000000C0000000600000063
:1013300001000000800000000000A0410000B0415A
:101340000000C0410000C0410000E0410000F04149
:101350003200000096000000FA0000002C0100009E
:101360005E0100009001000054656D7020546F6FA5
:10137000204869676820210000000000000000008C
:10138000000000000000000000000000000000005D
:10139000000000000000000000005475726E206F15
:1013A0006666206E6F7720210000000000000000BC
:1013B000000000000000000000000000000000002D
:1013C000000000000000000000000000000000001D
:1013D000000000000000000000000000000000000D
:1013E00000000000000000000000000000000000FD
:1013F00000000000000000000000000000000000ED
:1014000000000000000000000000000000000000DC
:1014100000000000000000000000000000000000CC
:04000005000001698D
:00000001FF
